:100000000C9434000C9449000C9449000C94490061
:100010000C9449000C9449000C9449000C9449003C
:100020000C9449000C9449000C9449000C9449002C
:100030000C9449000C9449000C9449000C9449001C
:100040000C9449000C9449000C9449000C9449000C
:100050000C9449000C9449000C9449000C944900FC
:100060000C9449000C94490011241FBECFEFD8E036
:10007000DEBFCDBF11E0A0E0B1E0EAE9F5E002C0EB
:1000800005900D92A631B107D9F70E944C010C944E
:10009000CB020C940000FC01908121E030E001C013
:1000A000220F6A95EAF7922B90830895FC01408114
:1000B00021E030E001C0220F6A95EAF72095242361
:1000C00020830895FC01908121E030E001C0220FDF
:1000D0006A95EAF792279083089521E030E001C005
:1000E000220F6A95EAF7FC019081922381E0921336
:1000F00080E008950895892F08958F929F92AF927E
:10010000BF92CF92DF92EF92FF92CF93DF934B019A
:100110005C010E94DE01EB01072E000C880B990B9D
:100120000E9416029B01AC01C501B4010E9471013D
:1001300020E030E040E05FE30E94A20287FF2196CA
:10014000CE01DF91CF91FF90EF90DF90CF90BF90E5
:10015000AF909F908F900895E0911201F09113015C
:100160001082E0911001F091110188E08083E0910C
:100170000C01F0910D01808188608083E0910C0179
:10018000F0910D018081806180830895E0910A01E2
:10019000F0910B01908195FFFDCFE0911401F0915A
:1001A000150180830895EF92FF920F931F93CF93D1
:1001B000DF938C017B01EC01CE01801B910B8E152E
:1001C0009F053CF0DF91CF911F910F91FF90EF9031
:1001D000089589910E94C600EFCFCF93DF93EC0181
:1001E0008991811103C0DF91CF9108950E94C600CB
:1001F000F7CFE0910A01F0910B01808187FFFDCFDD
:10020000E0911401F091150180810895E0910A01B7
:10021000F0910B018081082E000C990B892F881F0B
:100220008827881F90E00895883091057CF461301C
:10023000710561F4E0910601F0910701908101C020
:10024000660F8A95EAF7692B608308959C01285010
:1002500031092630310550F46130710599F4E0918F
:100260000201F091030190818850E9CF8830910517
:1002700094F4672B81F4682F809106019091070117
:100280000C945600672B39F468EF680F80910201D7
:1002900090910301F5CF08950E94AC00E091080110
:1002A000F09109018081806180830E94060101979D
:1002B000E1F70E94F900C82F0E94C600CE3639F43B
:1002C00061E070E084E090E00E941401EECFC63659
:1002D00061F764E080910601909107010E94560049
:1002E000E4CF5058BB27AA270E9489010C946802CA
:1002F0000E945A0238F00E94610220F039F49F3FB8
:1003000019F426F40C9457020EF4E095E7FB0C94D4
:100310005102E92F0E94790258F3BA176207730756
:100320008407950720F079F4A6F50C949B020EF44F
:10033000E0950B2EBA2FA02D0B01B90190010C01F5
:10034000CA01A0011124FF27591B99F0593F50F40D
:10035000503E68F11A16F040A22F232F342F442765
:10036000585FF3CF469537952795A795F04053955D
:10037000C9F77EF41F16BA0B620B730B840BBAF02D
:100380009150A1F0FF0FBB1F661F771F881FC2F798
:100390000EC0BA0F621F731F841F48F487957795AC
:1003A0006795B795F7959E3F08F0B0CF9395880F66
:1003B00008F09927EE0F9795879508950E94E5011B
:1003C0006894B1110C949C0208950E94810288F0F7
:1003D0009F5798F0B92F9927B751B0F0E1F0660F09
:1003E000771F881F991F1AF0BA95C9F714C0B1304A
:1003F00091F00E949B02B1E008950C949B02672F3C
:10040000782F8827B85F39F0B93FCCF38695779578
:100410006795B395D9F73EF4909580957095619561
:100420007F4F8F4F9F4F0895E89409C097FB3EF48C
:1004300090958095709561957F4F8F4F9F4F992331
:10044000A9F0F92F96E9BB279395F69587957795AF
:100450006795B795F111F8CFFAF4BB0F11F460FF6F
:100460001BC06F5F7F4F8F4F9F4F16C0882311F0C7
:1004700096E911C0772321F09EE8872F762F05C0DB
:10048000662371F096E8862F70E060E02AF09A9576
:10049000660F771F881FDAF7880F9695879597F96B
:1004A000089597F99F6780E870E060E008959FEFF6
:1004B00080EC089500240A941616170618060906FB
:1004C000089500240A9412161306140605060895CA
:1004D000092E0394000C11F4882352F0BB0F40F452
:1004E000BF2B11F460FF04C06F5F7F4F8F4F9F4F92
:1004F000089557FD9058440F551F59F05F3F71F014
:100500004795880F97FB991F61F09F3F79F087957A
:100510000895121613061406551FF2CF4695F1DF03
:1005200008C0161617061806991FF1CF8695710593
:10053000610508940895E894BB2766277727CB01C7
:1005400097F908950E94A70208F48FEF0895990F74
:100550000008550FAA0BE0E8FEEF16161706E8078D
:10056000F907C0F012161306E407F50798F0621BAE
:10057000730B840B950B39F40A2661F0232B242B83
:10058000252B21F408950A2609F4A140A6958FEFA2
:0A059000811D811D0895F894FFCF2E
:10059A002400250029002B002A00C000C100C20047
:0605AA00C400C500C600FC
:00000001FF
