:100000000C9434000C9449000C9449000C94490061
:100010000C9449000C9449000C9449000C9449003C
:100020000C9449000C9449000C9449000C9449002C
:100030000C9449000C9449000C9449000C9449001C
:100040000C9449000C9449000C9449000C9449000C
:100050000C9449000C9449000C9449000C944900FC
:100060000C9449000C94490011241FBECFEFD8E036
:10007000DEBFCDBF11E0A0E0B1E0E2E0FDE002C0F4
:1000800005900D92A433B107D9F70E94FA010C94A0
:100090007F060C940000E0910401F091050190812D
:1000A000907F9083E0910401F09105019081892B6C
:1000B0008083E0910801F091090180818064808350
:1000C000E0910801F0910901808186FDFDCFE0916A
:1000D0000001F09101018081E0910201F0910301A2
:1000E00090810895FC01908121E030E001C0220F51
:1000F0006A95EAF7922B90830895FC01408121E0F4
:1001000030E001C0220F6A95EAF72095242320836E
:100110000895FC01908121E030E001C0220F6A9532
:10012000EAF792279083089521E030E001C0220F82
:100130006A95EAF7FC019081922381E0921380E0B6
:1001400008950895892F08958F929F92AF92BF923C
:10015000CF92DF92EF92FF92CF93DF934B015C013E
:100160000E94BA02EB01072E000C880B990B0E942B
:10017000F2029B01AC01C501B4010E944D0220E0D6
:1001800030E040E05FE30E947E0387FF2196CE01CE
:10019000DF91CF91FF90EF90DF90CF90BF90AF9025
:1001A0009F908F900895883091057CF4613071059F
:1001B00061F4E0911E01F0911F01908101C0660F72
:1001C0008A95EAF7692B608308959C0128503109CC
:1001D0002630310550F46130710599F4E091160133
:1001E000F091170190818850E9CF8830910594F4FF
:1001F000672B81F4682F80911E0190911F010C9450
:100200007D00672B39F468EF680F8091160190919B
:100210001701F5CF0895883091057CF461307105A0
:1002200061F4E0911C01F0911D01908101C0660F05
:100230008A95EAF7692B608308959C01285031095B
:100240002630310550F46130710599F4E0911801C0
:10025000F091190190818850E9CF8830910594F48C
:10026000672B81F4682F80911C0190911D010C94E3
:100270007D00672B39F468EF680F80911801909129
:100280001901F5CF0895883091057CF4E0911C01A7
:10029000F0911D01908121E030E001C0220F8A958C
:1002A000EAF7892F8227808308959C01285031091D
:1002B00026303105C8F7E0911801F09119019081BD
:1002C0008850E9CFE0911201F09113011082E09182
:1002D0001001F091110188E08083E0910C01F09110
:1002E0000D01808188608083E0910C01F0910D0107
:1002F0008081806180830895E0910A01F0910B0173
:10030000908195FFFDCFE0911401F091150180835C
:100310000895EF92FF920F931F93CF93DF938C0179
:100320007B01EC01CE01801B910B8E159F053CF0EB
:10033000DF91CF911F910F91FF90EF9008958991D8
:100340000E947C01EFCFCF93DF93EC018991811163
:1003500003C0DF91CF9108950E947C01F7CFE09117
:100360000A01F0910B01808187FFFDCFE09114011C
:10037000F091150180810895E0910A01F0910B013F
:100380008081082E000C990B892F881F8827881FD1
:1003900090E00895E0910801F09109018081816069
:1003A0008083E0910801F09109018081826080835F
:1003B000E0910801F0910901808184608083E091DF
:1003C0000401F0910501808180648083E09108013F
:1003D000F0910901808180688083E0910801F091AB
:1003E00009018081806480830895883010F40C9422
:1003F0004B000895CF93DF93CDB7DEB7C054D1093A
:100400000FB6F894DEBF0FBECDBF0E9462010E94FE
:10041000CA0161E070E084E090E00E94D30061E0F6
:1004200070E08DE090E00E94D30080E2B82E90E270
:10043000E92E91E0F92E8E010F5F1F4F84E090E0CE
:100440000E944301E0911801F091190180818B25F0
:10045000808380E00E944B00D82EC92E82E00E944B
:100460004B009F938F93CF92DF92FF92EF921F9357
:100470000F930E94A703C8010E94A3012FEF81EEF2
:1004800094E0215080409040E1F700C000000FB69A
:10049000F894DEBF0FBECDBFD1CF5058BB27AA27DF
:1004A0000E9465020C9444030E94360338F00E94B7
:1004B0003D0320F039F49F3F19F426F40C943303E4
:1004C0000EF4E095E7FB0C942D03E92F0E945503F1
:1004D00058F3BA17620773078407950720F079F479
:1004E000A6F50C9477030EF4E0950B2EBA2FA02DF1
:1004F0000B01B90190010C01CA01A0011124FF27D1
:10050000591B99F0593F50F4503E68F11A16F040CB
:10051000A22F232F342F4427585FF3CF46953795CA
:100520002795A795F0405395C9F77EF41F16BA0B8F
:10053000620B730B840BBAF09150A1F0FF0FBB1F3D
:10054000661F771F881FC2F70EC0BA0F621F731F86
:10055000841F48F4879577956795B795F7959E3FE3
:1005600008F0B0CF9395880F08F09927EE0F979574
:10057000879508950E94C1026894B1110C94780384
:1005800008950E945D0388F09F5798F0B92F99272E
:10059000B751B0F0E1F0660F771F881F991F1AF06E
:1005A000BA95C9F714C0B13091F00E947703B1E059
:1005B00008950C947703672F782F8827B85F39F058
:1005C000B93FCCF3869577956795B395D9F73EF407
:1005D00090958095709561957F4F8F4F9F4F0895AF
:1005E000E89409C097FB3EF49095809570956195CD
:1005F0007F4F8F4F9F4F9923A9F0F92F96E9BB2783
:100600009395F695879577956795B795F111F8CFFE
:10061000FAF4BB0F11F460FF1BC06F5F7F4F8F4F69
:100620009F4F16C0882311F096E911C0772321F05F
:100630009EE8872F762F05C0662371F096E8862FF7
:1006400070E060E02AF09A95660F771F881FDAF74E
:10065000880F9695879597F9089597F99F6780E891
:1006600070E060E008959FEF80EC089500240A9404
:100670001616170618060906089500240A9412167D
:100680001306140605060895092E0394000C11F4B0
:10069000882352F0BB0F40F4BF2B11F460FF04C05D
:1006A0006F5F7F4F8F4F9F4F089557FD9058440FB6
:1006B000551F59F05F3F71F04795880F97FB991FC1
:1006C00061F09F3F79F0879508951216130614067E
:1006D000551FF2CF4695F1DF08C01616170618060B
:1006E000991FF1CF86957105610508940895E894E6
:1006F000BB2766277727CB0197F908950E948303CC
:1007000008F48FEF0895990F0008550FAA0BE0E841
:10071000FEEF16161706E807F907C0F012161306C3
:10072000E407F50798F0621B730B840B950B39F403
:100730000A2661F0232B242B252B21F408950A2669
:1007400009F4A140A6958FEF811D811D0895AEE0AB
:10075000B0E0EDEAF3E00C9456060D891E8986E0C0
:100760008C831A8309838FEF9FE79E838D83AE016D
:10077000475E5F4F6F89788DCE0101960E94CA0354
:100780002F813885020F131FF80110822E96E4E0A6
:100790000C947206ABE0B0E0E0EDF3E00C94480698
:1007A0007C013B018A01FC0117821682838181FF53
:1007B000C8C1CE0101965C01F7019381F30193FD5D
:1007C000859193FF81913F01882309F453C18532BC
:1007D00039F493FD859193FF81913F01853229F48E
:1007E000B70190E00E94BA05E7CF912C212C312C63
:1007F000FFE1F31538F08B3211F190F4803209F1FA
:10080000833229F137FC3CC020ED280F2A3050F507
:1008100036FE20C08AE0989E200D1124922E06C03C
:100820008D3291F0803371F7689430F8F30193FDC5
:10083000859193FF81913F018111DACF21C06894A6
:1008400031F8689432F8F2CF689433F8EFCF6894B7
:1008500034F8ECCFEAE02E9E200D1124222E68946D
:1008600035F8E4CF8E3229F436FC04C1689436F8AA
:10087000DDCF8C3619F4689437F8D8CF8836B1F2CA
:10088000982F9F7D95549330E0F08336A1F1833704
:10089000C1F1833509F063C02801F2E04F0E511C0D
:1008A000F801C080D180692D70E036FC02C06FEF86
:1008B0007FEFC6010E94A4054C01689437F88201BD
:1008C0000AC00C5F1F4FFFE3F98388248394912CA7
:1008D0006501E89437F833FE2DC0522C8114910441
:1008E00071F5552009F468CFB70180E290E00E94CD
:1008F000BA055A94F6CFF801808189830E5F1F4FA5
:10090000E4CF2801F2E04F0E511CF801C080D180E5
:10091000692D70E036FC02C06FEF7FEFC6010E94C8
:10092000AF054C018201D5CFB70180E290E00E9473
:10093000BA052A942814190409F0B0F7CECFF601AD
:1009400037FC859137FE81916F01B70190E00E94DD
:10095000BA0551105A94F1E08F1A9108BFCF84362E
:1009600019F0893609F077C0F80137FE6BC0608155
:100970007181828193810C5F1F4FF32DFF763F2E93
:1009800097FF09C090958095709561957F4F8F4F27
:100990009F4F689437F82AE030E0A5010E94EA05ED
:1009A000C82ECA188C2C432C36FE0CC0E89440F894
:1009B000C91440F434FE05C032FC03C0F32DFE7EA2
:1009C0004F2E892C44FE95C0FE01EC0DF11D808157
:1009D000803309F087C0242D297E422E842D887013
:1009E000582E43FC95C040FE8FC09C2C821418F4F6
:1009F0002C0C922C981844FE91C0B70180E390E033
:100A00000E94BA0542FE09C088E790E041FE02C09C
:100A100088E590E0B7010E94BA05C91408F48AC0BD
:100A2000CA94D12C9FEFC91AD90ACA0CDB1CF60153
:100A300082916F01B70190E00E94BA05AC14BD0429
:100A4000B1F74FCF60817181072E000C880B990B95
:100A50000E5F1F4F92CFD32CE894D4F82AE030E0F9
:100A6000853739F1232D297FD22E8F3601F148F4B5
:100A70008835A9F0F701868197812B96E2E10C94E5
:100A80006406803749F08837A9F7D4FE02C068941D
:100A9000D2F820E130E00DC06894D4F8F6CF34FEEF
:100AA00003C0822F8660D82E20E132E002C028E009
:100AB00030E0F801D7FE0FC060817181828193819F
:100AC0000C5F1F4FA5010E94EA05C82ECA183D2CD5
:100AD000E89437F867CF6081718190E080E00E5F25
:100AE0001F4FF0CF42FC02C0839478CF839483944D
:100AF00075CF842D867809F471CFF6CFB70180E2E7
:100B000090E00E94BA0583948214C0F3512C73CFF5
:100B1000522C5818821408F46ECFF8CF842D8678A2
:100B200009F47BCF8BE241FE80E247FC8DE2B70106
:100B300090E071CFB70180E390E00E94BA059A94EB
:100B40006CCF8FEF9FEF99CFFC0105906150704003
:100B50000110D8F7809590958E0F9F1F0895FC0186
:100B60006150704001900110D8F7809590958E0FDC
:100B70009F1F08950F931F93CF93DF93182F092F73
:100B8000EB018B8181FD09C01FEF0FEF812F902FAB
:100B9000DF91CF911F910F91089582FF14C02E8194
:100BA0003F818C819D81281739073CF4E881F981C8
:100BB000CF0101969983888310838E819F8101964E
:100BC0009F838E83E3CFE885F985812F0995892B53
:100BD000A1F3DACFFA01AA27283051F1203181F1AF
:100BE000E8946F936E7F6E5F7F4F8F4F9F4FAF4F35
:100BF000B1E03ED0B4E03CD0670F781F891F9A1F48
:100C0000A11D680F791F8A1F911DA11D6A0F711DFB
:100C1000811D911DA11D20D009F468943F912AE007
:100C2000269F11243019305D3193DEF6CF010895EF
:100C3000462F4770405D4193B3E00FD0C9F7F6CF20
:100C4000462F4F70405D4A3318F0495D31FD4052E8
:100C5000419302D0A9F7EACFB4E0A695979587957E
:100C600077956795BA95C9F700976105710508955D
:100C70009B01AC010A2E0694579547953795279509
:100C8000BA95C9F7620F731F841F951FA01D0895A1
:100C90002F923F924F925F926F927F928F929F928C
:100CA000AF92BF92CF92DF92EF92FF920F931F937A
:100CB000CF93DF93CDB7DEB7CA1BDB0B0FB6F8942B
:100CC000DEBF0FBECDBF09942A88398848885F846B
:100CD0006E847D848C849B84AA84B984C884DF80DC
:100CE000EE80FD800C811B81AA81B981CE0FD11DC0
:100CF0000FB6F894DEBF0FBECDBFED010895F89496
:020D0000FFCF23
:100D0200780079007C007B007A00C000C100C2003C
:100D1200C400C500C6002400250029002B002A00BB
:100D2200414443303A2025642C20414443323A2046
:040D320025640A002A
:00000001FF
