:100000000C9434000C943E000C943E000C943E0082
:100010000C943E000C943E000C943E000C943E0068
:100020000C943E000C943E000C943E000C943E0058
:100030000C943E000C943E000C943E000C943E0048
:100040000C943E000C943E000C943E000C943E0038
:100050000C943E000C943E000C943E000C943E0028
:100060000C943E000C943E0011241FBECFEFD8E04C
:10007000DEBFCDBF0E946F000C9484000C94000082
:10008000FC01908121E030E001C0220F6A95EAF77F
:10009000922B90830895FC01408121E030E001C063
:1000A000220F6A95EAF72095242320830895FC0106
:1000B000908121E030E001C0220F6A95EAF7922793
:1000C0009083089521E030E001C0220F6A95EAF79D
:1000D000FC019081922381E0921380E00895549A6C
:1000E000259A90E285B1892785B92FEF31EE84E01A
:1000F000215030408040E1F700C000004E9B02C01C
:0C0100005C9AF0CF5C98EECFF894FFCF33
:00000001FF
